:100000000C9448080C9470080C9470080C947008B8
:100010000C9470080C9470080C9470080C94700880
:100020000C9470080C9470080C943B120C94AD1254
:100030000C9470080C9470080C9470080C94700860
:100040000C9470080C9470080C9470080C94700850
:100050000C9470080C9470080C9470080C940109AE
:100060000C9470080C9470080C9470080C94700830
:100070000C9470080C9470080C9470080C94700820
:100080000C9470080C9470080C9470080C94700810
:100090000C9470080C9470080C9470080C94700800
:1000A0000C9470080C9470080C9470081A1688163A
:1000B000F7179C188B19F5191D1AA70AA90AAB0A7C
:1000C000AD0AAF0AB10AB30AB50AA00BA00BA00B88
:1000D000A00BA00BA00BA00BA00BA00BA00BA00BC8
:1000E000A20BA20BA20BA20BA20BA40BA40BA40BA2
:1000F000A60BA60BD5F08D14A1C881CFD9F1AF20E6
:100100000050726573732041000000000000000081
:1001100000000000000000000000000000000000DF
:1001200000000000000000000000000000000000CF
:1001300000000000000000000000000000000000BF
:1001400000000000000000000000000000000000AF
:1001500000000000000000808000404000300804E3
:1001600002010000000002010040200C13002804DE
:10017000020214F80000000000000000000000006F
:10018000000000000000000000000000000000006F
:1001900000FCFEFE0707071E1E1C00FFFFFFE0E03D
:1001A000E0FEFFFF00F0FCFE0E070707FEFEF80072
:1001B000FCFEFE0707071E1E1C60FCFEFE0707076D
:1001C000FEFEFC00FFFFFF676767FEFEDC00FCFE33
:1001D000FE170F071EFFFDE00000000000000000FA
:1001E00000000000000000000000000004021000F9
:1001F00008080E010404020200C97F00000000008C
:1002000000000000000000000000000000000000EE
:100210000003070F0E0C0C0F0703000F0F0F000059
:10022000000F0F0F000007070F0C0C0E0F07030045
:1002300003070F0E0C0E0F07030003070F0E0C0E23
:100240000F0703000F0F0F0C0C8E6F1F0F4EFFFFD9
:10025000FFFEFCFEFFF7E3C08080F0F8F4F0F0E072
:10026000800000000000000000000000000000818D
:10027000000002000104044647E00C0000000000FA
:1002800000000000C02020408000000000000000AE
:1002900000000000000000000000E0E0E00000C0FE
:1002A000E0E0800080E0E06080C0C0E0E0E0E0C02E
:1002B000800000E0E0E0E0E0E0C0C00000E0E0E05E
:1002C0000000000000E0E0E0FCE3E0C0E0FCFFFF35
:1002D000FFFFFFFFFFFFFFFFFFFFFF30787FBFBF84
:1002E0008F000000000000000000000000000080FF
:1002F0006030101008080406C38000000040201081
:100300004808060100000000030000000000000093
:1003100000000000000000000000011FFFFEFEFFC3
:100320000F1FFFF8FF7F07007FFFFFC0C0C0E1FF86
:100330007F1E00FFFFFF1C1C3FFFFFE000FFFFFFD1
:10034000C0C0C0C080FFFFFFC0C1C7FFFF3F3F3F2D
:100350001F0F0F0F07070707030307876F0707071D
:100360000200000000709000480820243A060D208A
:100370000040400080C0300FB9001146010000006D
:10038000000080402010000806000000000000006F
:10039000000000000000000000000000010101005A
:1003A0000000010101000000000001010101010045
:1003B0000000000101010000000101010001010134
:1003C0000101010100010101010101000000000023
:1003D00000000000000038030103010200000400D7
:1003E00004020200040404010000000000000010E8
:1003F000000010100040000000000000207F0404F6
:1004000000000F10204080000000000000000000ED
:1004100000000000000000000000000000000000DC
:1004200000000000000000000000000000000000CC
:1004300000000000000000000000000000000000BC
:1004400000000000000000000000000000000000AC
:1004500000000000000318408000000000000000C1
:10046000000000001C8000000000000000000000F0
:1004700000000000411C000000008040200E2020F1
:100480002020301000202023380000000000000051
:10049000000000000000000000000000000000005C
:1004A000000000000000000000000000000000004C
:1004B000000000000000000000000000000000003C
:1004C000000000000000000000000000000000002C
:1004D0000000000000000000010204000810306469
:1004E00040820000000000400008001010000000E2
:1004F000000010100008C0241802010000000000D5
:100500000000000000000000000200210609129413
:10051000284E414D453A200057494E533A20004D50
:100520004150006010080482C2A1F1F9FDB2ECD084
:1005300020C000000000000000563A3ACC01130F22
:100540000717170BC5F2CD48D4E28D895EA4F827B2
:10055000331F1F3C3E3C303C1F1E230F0703173F39
:100560001F0C00000000E0100828181894744E2298
:10057000A1B17D21A28E5498280810E08080003C13
:10058000CF9161971FAFDF1C38E8C8C8E99FC8F852
:100590008C84F7EF241C68E71E00070970589DC77C
:1005A0008FE29A9F67076F91A2ECD09081473A043F
:1005B000060100000000E01C02810101416101010F
:1005C00061E1E1C101729CF8E080000080FC83E001
:1005D000FF00007000E5E9E98A4C6101E070003835
:1005E000048F78070811234747808C98D88080892A
:1005F000D9F89C8C84848646243B1CFFFEFA8C0828
:1006000000008080404040801098F5FDFEFC3001E5
:100610000B0FCF239F038018160C028A6B151F0740
:1006200003030200000003040B0E0B01010303018E
:1006300000000000000000F098F098EC3018F0582E
:10064000FCFCFC58F000060CFBE6FCE63C00E3FF7B
:10065000FFC3E0E0F3F2F4FCF4F279383838307F8D
:100660007F38000C1819051C3C18253F3F3F3F1FE1
:1006700005000000000000000000000080601088FD
:1006800044408202020E1820A06000C020E000005A
:1006900000001E111010107BA72481000000100E16
:1006A0000358BB80A4730E0400000000000000305B
:1006B000695A7B56545C4C405A5760000000000059
:1006C00000000000000000000000000000F010101A
:1006D000102040808000000000FC060B7DCEF41A44
:1006E0000A0906060C03020C0616120C000182848D
:1006F000F0000F080602040604003840EA498AA206
:10070000CE4C54586E01010000C0E0807F0D228461
:10071000C484220D7F80E0C0030509F90240808176
:10072000804002F9090503000000010202010001F6
:1007300002020100000047616D65204F766572007E
:100740000000000000C07808081018040418100801
:100750000878C000000000000000000000394ED101
:10076000FD8E000000008E7DD1CEB9E000000000BB
:1007700000000000000C0A070C16191111110F18C7
:100780002339040300000000000000000000C078CE
:100790000808101804041810080878C000000000A9
:1007A0000000000000E0B9CED17D8E000000008E78
:1007B000FDD14E39000000000000000000030439A4
:1007C00023180F11111119160C070A0C0000000054
:1007D0000000000000E0501008080C02020C08089D
:1007E0001050E0000000000000000000030EFA3886
:1007F000889C220204180402221E1E93E0000000BE
:10080000000000000000013E437813243810103C23
:100810002818090907000000000000000000E0504F
:100820001008080C02020C08081050E0000000003C
:100830000000000060931E1E220204180402229C85
:100840008838FA0E030000000000000006090918AD
:10085000283C101038241378433E010000000000AB
:100860000000008060108844408202020E1820A020
:100870006000008040C00000001E111010909B67B7
:10088000A421800000101E130048FE0190CF380004
:10089000000000000306050D1B7247360C041C14F3
:1008A0001209050202010000000000806010884467
:1008B000408202020E1820A060806010F00000004C
:1008C000001E917050305BE7A421800000101E1BB9
:1008D0000649F8D2B907000000000101010204181E
:1008E000110E03060404346C5A5B4620110A0C00F6
:1008F0000000C04080000060A020180E020282406C
:1009000044881060800000000038CF9001FE48004D
:10091000131E1000008021A4679B901010111E0070
:100920000000010202050912141C040C3647721B58
:100930000D05060300000000000000F0106080605C
:10094000A020180E0202824044881060800000003F
:10095000000007B9D2F849061B1E1000008021A430
:10096000E75B305070911E00000C0A1120465B5A64
:100970006C34040406030E11180402010101000086
:100980000000000000709E4242840601010684427D
:10099000429E70000000000000000000182EF314BA
:1009A0007F2340404040237F14F32E1800000000B6
:1009B000000000007048216687E418080818E487E2
:1009C00066214870000000000000000080702808C8
:1009D00004040601010604040828708000000000D9
:1009E0000000000001E73D2444081E01011E0844E8
:1009F000243DE70100000000000000001814152647
:100A00002E429CF0F09C422E261514180000000087
:100A100014040424044444040404040424040404C6
:100A200004141404040444440404040424040404C6
:100A300000240404440484840404040404440404DA
:100A400004042424040404848404040404440404E6
:100A50000444040484040C0C040404040484040406
:100A6000040444440404040C0C0404040484040436
:100A7000048404040C04141404040404040C040486
:100A8000040484840404041414040404040C0404FE
:100A9000040C0404140424240404040404140404AE
:100AA00004040C0C040404242404040404140404A6
:100AB0000414040424044444040404040424040426
:100AC0000404141404040444440404040424040426
:100AD0000400000000003E5B4F5B3E3E6B4F6B3EF0
:100AE0001C3E7C3E1C183C7E3C181C577D571C1C31
:100AF0005E7F5E1C00183C1800FFE7C3E7FF00188C
:100B0000241800FFE7DBE7FF30483A060E26297974
:100B10002926407F050507407F05253F5A3CE73CD5
:100B20005A7F3E1C1C08081C1C3E7F14227F221486
:100B30005F5F005F5F06097F017F006689956A60DD
:100B40006060606094A2FFA29408047E04081020F4
:100B50007E201008082A1C08081C2A08081E1010ED
:100B600010100C1E0C1E0C30383E3830060E3E0E97
:100B700006000000000000005F0000000700070002
:100B8000147F147F14242A7F2A12231308646236E8
:100B9000495620500008070300001C224100004174
:100BA000221C002A1C7F1C2A08083E0808008070AE
:100BB00030000808080808000060600020100804E1
:100BC000023E5149453E00427F4000724949494634
:100BD0002141494D331814127F1027454545393CB2
:100BE0004A4949314121110907364949493646499F
:100BF00049291E00001400000040340000000814C1
:100C00002241141414141400412214080201590939
:100C1000063E415D594E7C1211127C7F494949368E
:100C20003E414141227F4141413E7F494949417F07
:100C3000090909013E414151737F0808087F0041BD
:100C40007F41002040413F017F081422417F404006
:100C500040407F021C027F7F0408107F3E414141DB
:100C60003E7F090909063E4151215E7F0919294647
:100C7000264949493203017F01033F4040403F1F5D
:100C80002040201F3F4038403F6314081463030492
:100C90007804036159494D43007F414141020408F2
:100CA0001020004141417F040201020440404040C5
:100CB00040000307080020545478407F28444438FB
:100CC0003844444428384444287F38545454180045
:100CD000087E090218A4A49C787F080404780044C4
:100CE0007D40002040403D007F1028440000417FAF
:100CF00040007C047804787C080404783844444438
:100D000038FC1824241818242418FC7C080404082F
:100D1000485454542404043F44243C4040207C1C48
:100D20002040201C3C4030403C44281028444C903B
:100D300090907C4464544C44000836410000007795
:100D40000000004136080002010204023C2623266E
:100D50003C1EA1A161123A4040207A3854545559A2
:100D600021555579412154547841215554784020DA
:100D7000545579400C1E52721239555555593954F3
:100D800054545939555454580000457C410002458B
:100D90007D420001457C40F0292429F0F0282528D7
:100DA000F07C545545002054547C547C0A097F49FA
:100DB00032494949323248484832324A4848303A42
:100DC0004141217A3A42402078009DA0A07D3944DB
:100DD0004444393D4040403D3C24FF2424487E4962
:100DE00043662B2FFC2F2BFF0929F620C0887E0994
:100DF0000320545479410000447D413048484A3230
:100E0000384040227A007A0A0A727D0D19317D2617
:100E100029292F28262929292630484D40203808FD
:100E200008080808080808382F10C8ACBA2F10287E
:100E300034FA00007B000008142A142222142A1419
:100E4000089500220095AA005500AAAA55AA55AAFD
:100E5000000000FF00101010FF00141414FF001019
:100E600010FF00FF1010F010F0141414FC00141404
:100E7000F700FF0000FF00FF1414F404FC14141723
:100E8000101F10101F101F1414141F00101010F04A
:100E9000000000001F101010101F10101010F01094
:100EA000000000FF101010101010101010FF1000A4
:100EB0000000FF140000FF00FF00001F10170000DB
:100EC000FC04F414141710171414F404F40000FFB5
:100ED00000F714141414141414F700F7141414174E
:100EE0001410101F101F141414F4141010F010F02C
:100EF00000001F101F0000001F14000000FC140061
:100F000000F010F01010FF10FF141414FF14101054
:100F1000101F00000000F010FFFFFFFFFFF0F0F0D7
:100F2000F0F0FFFFFF0000000000FFFF0F0F0F0FAA
:100F30000F38444438447C2A2A3E147E02020606B6
:100F4000027E027E0263554941633844443C0440BA
:100F50007E201E2006027E020299A5E7A5991C2A82
:100F6000492A1C4C7201724C304A4D4D3030487841
:100F70004830BC625A463D3E494949007E01010164
:100F80007E2A2A2A2A2A44445F444440514A444043
:100F900040444A51400000FF0103E080FF00000888
:100FA000086B6B083612362436060F090F06000050
:100FB00018180000001010003040FF0101001F0150
:100FC000011E00191D1712003C3C3C3C00000000B3
:100FD00000000000E020C00060A020180E02028285
:100FE00040448810608000000000040E73A480BBA1
:100FF00058030E100000008124A77B101010111E52
:101000000000000000000060575A404C5C54567BC2
:101010005A6930000000000000080B0002020200C4
:10102000000904000001020200000524001001056F
:10103000240101010424020605240600010705819C
:101040000310004009040100020A00000007050225
:101050000240000007058302400000040309041257
:10106000010002EF0201404123368000010102032A
:101070000141726475696E6F204C4C43004172648B
:1010800075696E6F204C656F6E6172646F00681ACF
:1010900011241FBECFEFDAE0DEBFCDBF11E0A0E02C
:1010A000B1E0ECE5F7E302C005900D92A23BB10779
:1010B000D9F727E0A2EBB1E001C01D92A43DB20731
:1010C000E1F718E0C8E4D8E004C02197FE010E94CF
:1010D000A11BC734D107C9F70E94EB140C94AC1BB9
:1010E0000C940000CF92DF92EF92FF920F931F9328
:1010F000CF93DF936C017A018B01C0E0D0E0CE1575
:10110000DF0581F0D8016D918D01D601ED91FC9143
:101110000190F081E02DC6010995892B11F02196EF
:10112000EECF7E01C701DF91CF911F910F91FF900C
:10113000EF90DF90CF9008953FB7F89480916603C9
:1011400090916703A0916803B091690326B5A89BAD
:1011500005C02F3F19F00196A11DB11D3FBFBA2F49
:10116000A92F982F8827820F911DA11DB11DBC01A9
:10117000CD0142E0660F771F881F991F4A95D1F76E
:101180000895089580E090E008950E94A71B8F9233
:101190009F92AF92BF92CF92DF92EF92FF926B013C
:1011A0007C010E949C084B015C01C114D104E10444
:1011B000F104F1F00E949C08DC01CB018819990927
:1011C000AA09BB09883E9340A105B10570F321E04F
:1011D000C21AD108E108F10888EE880E83E0981E53
:1011E000A11CB11CC114D104E104F10419F7DDCF35
:1011F000FF90EF90DF90CF90BF90AF909F908F9037
:1012000008951F920F920FB60F9211242F933F93C0
:101210008F939F93AF93BF938091B2019091B3014D
:10122000A091B401B091B5013091650323E0230F83
:101230002D3720F40196A11DB11D05C026E8230F0E
:101240000296A11DB11D209365038093B201909376
:10125000B301A093B401B093B5018091660390915E
:101260006703A0916803B09169030196A11DB11DA8
:101270008093660390936703A0936803B093690318
:10128000BF91AF919F918F913F912F910F900FBE82
:101290000F901F901895BC0180E090E00C94C70857
:1012A0008FB18095807F669B88601C9B84600895C9
:1012B00080E0EEE6F3E081118FEF002481938193CB
:1012C000819381930394D1F710924D0310924C03B4
:1012D00010924F0310924E030895CF93C82F0E948F
:1012E0005009C82381E009F080E0CF910895CF93A1
:1012F000C82F0E945009982F9C2381E09C1380E006
:10130000CF910895EEE6F3E080E0A0E0B8E0008041
:101310000EBC8111012C1197A0FDFDCF0192B9F7F0
:101320000DB4089580389105B8F460347105A0F4C7
:1013300090E121E061FD24E060FD220F62FD229535
:10134000687F969FD0011124A80FA259BC4F8C91A1
:10135000822B40FF82278C930895AF92BF92CF9249
:10136000DF92EF92FF920F931F93CF93DF936D3035
:1013700009F447C0E0904C03F0904D036A3061F4EB
:1013800010924F0310924E0388E0E80EF11CF09289
:101390004D03E0924C0335C0F5E06F9FE00111244E
:1013A000CF52D54FA0904E03B0904F0310E01530B0
:1013B00031F0CE010196FE010491EC0101C000E084
:1013C000C12CD12C402F4170B7016C0D7D1DC50182
:1013D0000E9492090695FFEFCF1ADF0A88E0C8162F
:1013E000D10481F71F5FEFEFAE1ABE0A1630F9F68F
:1013F00080914E0390914F03069690934F038093F4
:101400004E0381E090E0DF91CF911F910F91FF900B
:10141000EF90DF90CF90BF90AF900895DF92EF9262
:10142000FF920F931F93CF93DF937C01D22E8B01FA
:10143000040F111DEB0177FF02C0C0E0D0E0C8012E
:101440000134110514F080E490E0C817D9073CF48A
:101450004D2DBE01C7010E9492092196F0CFDF9168
:10146000CF911F910F91FF90EF90DF900895CF9251
:10147000DF92EF92FF920F931F93CF93DF937B0145
:10148000122FEC016C01C40ED11CCC15DD0544F407
:10149000202F412FB701CE010E940E0A2196F5CFD1
:1014A000DF91CF911F910F91FF90EF90DF90CF9040
:1014B00008950F931F93CF93DF93809164008E7FE5
:1014C0008093640080917A00806480937A00809198
:1014D0007A0086FDFCCFC0917800D09179000E94FF
:1014E0009C088E0120E030E0980111270027600F52
:1014F000711F821F931F209164002160209364005C
:10150000611571058105910531F0DF91CF911F9132
:101510000F910C94211BDF91CF911F910F91089592
:10152000809148039091490365E070E00E948D1B13
:10153000892BF1F4E09114018E2F90E0FC01349797
:10154000E830F105A8F4E35AFF4F0C94A11B85E0A5
:101550000DC084E00BC087E009C086E007C089E0C9
:1015600005C088E003C08BE001C08AE080931401CD
:1015700008950F93CF93DF93882351F161110AC02F
:1015800080916403803211F41092640380916403AB
:101590008F5F0CC0613069F480916403811103C0D6
:1015A00080E280936403809164038150809364039C
:1015B0000FC0623009F049C080916303811103C0FC
:1015C00084E080936303809163038150809363037D
:1015D0008EEF860F823010F5C0E0D0E0E09163031B
:1015E0000E2E000CFF0BED5BFE4FE081F0E0EE0FE6
:1015F000FF1FE75CFE4F408151818091640308E04A
:1016000020E267E370E0FE01E81BF109CF010E94D0
:10161000C40EA096C03AD10509F723C0623008F580
:10162000C0E0D0E08091640308E020E240E15AE0AD
:1016300067E370E0FE01E81BF109CF010E94C40ED0
:10164000A096C03AD10571F70CC0633009F68091BD
:101650006303843011F410926303809163038F5FFE
:10166000B5CFDF91CF910F9108950F93AFE0B1E027
:101670001596EC911597F0E0EE0FFF1FE15EFE4F1F
:101680004081518117965C934E93169711966C91F9
:10169000119770E0685171098C9108E128E190E0A0
:1016A0000E94C40E0F91089584E0809301018093FD
:1016B000020187E08093030188E0809304018CE0BD
:1016C0008093050110924A0380EF90E00E944B093D
:1016D000E09111018091120194E1E99FF001112440
:1016E000E954FE4FE80FF11D8081813029F080918F
:1016F0004703883009F047C08CE390E090934F0394
:1017000080934E038EE190E090934D0380934C03C1
:101710008AE891E00E9423110E9482090E94D31A54
:1017200024E130E040E050E00E942A1B862F90E048
:101730008531910570F4FC01EB59FF4F0C94A11B0E
:1017400081E005C082E003C083E001C084E08093B3
:101750004B0380914703883019F485E080934B0355
:1017600080EF90E00E944B0980EF90E00E944B09CF
:1017700080EF90E00E944B0980EF90E00E944B09BF
:1017800083E08093500380914703893018F085E00F
:101790008093500308950F9300E02CE044E164E34C
:1017A00070E08EE190E00E94370A2CE04AE064E3AA
:1017B00070E084E590E00E94370A80E290E0909328
:1017C0004F0380934E0387E390E090934D03809303
:1017D0004C03E0914B03F0E0E050FF4F80810E940A
:1017E000311180914B03853041F42CE044E164E3F6
:1017F00070E08EE190E00E94F3102CE04AE064E398
:1018000070E08EE190E00E94F31087E590E0909305
:101810004F0380934E0387E390E090934D038093B2
:101820004C03809113010E9431112CE04AE064E3E3
:1018300070E084E590E00F910C94F310FF920F9309
:101840001F93CF93DF938091060189538B3008F06B
:1018500067C089E190E090934F0380934E038FE03F
:1018600090E090934D0380934C0381E991E00E94B6
:101870002311E0914B03F0E0E050FF4F8081815055
:101880008083882309F4EAC010924A030E94590A0F
:101890000E94D31AE0914B03CE2FD0E029E030E034
:1018A00040E050E00E942A1BDC01CB010196A11D03
:1018B000B11DFE01E050FF4F20812813A5C010820A
:1018C0000E9458098CE390E090934F0380934E035D
:1018D0008EE190E090934D0380934C0380914703F9
:1018E0008F5F80934703C1E0C0934A0386E991E08C
:1018F0000E942311E09111018091120194E1E99F6E
:10190000F0011124E954FE4FE80FF11D10820E94EE
:10191000820984EF91E00E944B0984EF91E0C9C0F5
:1019200009E110E010934F0300934E03CFE0D0E0A5
:10193000D0934D03C0934C038BE991E00E94231197
:1019400010924A030E9482090E94590A0E94D31AE7
:1019500029E030E040E050E00E942A1BDC01CB018E
:101960000196A11DB11DF82E10934F0300934E0355
:1019700025E030E030934D0320934C030E94311159
:10198000809113018F1508F046C086E490E0909393
:101990004F0380934E03D0934D03C0934C0381E9D2
:1019A00091E00E9423110E948209809113018150CD
:1019B0008093130110924A0380EF90E00E944B093C
:1019C00080911301811120C00E9458098CE390E09E
:1019D00090934F0380934E038EE190E090934D03DC
:1019E00080934C0389EA91E00E942311C1E0C093E7
:1019F0004A030E94820984EF91E00E944B09C09340
:101A0000B60184E080935003DF91CF911F910F9135
:101A1000FF900C948209F812D3CF0E9458098CE3EE
:101A200090E090934F0380934E038EE190E090936B
:101A30004D0380934C0381EA91E00E942311C1E0A1
:101A4000C0934A030E94820984EF91E00E944B09EF
:101A5000C093B60184E080935003B2CFC1E0C0933D
:101A60004A030E9458098CE390E090934F038093BF
:101A70004E038EE190E090934D0380934C0386E9F2
:101A800091E00E942311E09111018091120194E1F3
:101A9000E99FF0011124E954FE4FE80FF11D108277
:101AA000809147038F5F809347030E94820988EEED
:101AB00093E00E944B09C0935003DF91CF911F9197
:101AC0000F91FF9008959C01240F311D12161306EB
:101AD00074F5803891055CF597FF02C080E090E0D6
:101AE0002138310514F020E830E0281BAB014770A5
:101AF000552731E001C0330F4A95EAF777FF02C05E
:101B0000695F7F4F43E0759567954A95E1F7769554
:101B1000762F662777956795860F971FFC01E25908
:101B2000FC4F215020F08081832B8193FACF0895C0
:101B300020916D03211103C08FEF9FEF08955FB7D0
:101B4000F89422E02093E9002091F20030E0121690
:101B5000130614F421E030E0422FFC0184E64150EA
:101B600038F0289880936C039091F1009193F7CF0F
:101B70002115310521F08091F200882319F05FBF13
:101B8000C90108958BE68093E800F9CF2FB7F89448
:101B900083E08093E9009091E800892F807295FF9F
:101BA00004C09091F20080E4891B2FBF0895CF9369
:101BB000DF931F92CDB7DEB76983DC01ED91FC9115
:101BC0000280F381E02D41E050E0BE016F5F7F4F66
:101BD00009950F90DF91CF91089583E08093E900FC
:101BE0008091F200882319F08AE38093E800089539
:101BF0000E94C60D90E00895CF93DF931F92CDB75A
:101C0000DEB7FC018485958597FD05C02FEF3FEF7A
:101C1000358724870BC0CE0101960E94980D01974D
:101C200019F4898190E002C08FEF9FEF0F90DF9150
:101C3000CF9108950F931F93CF93DF931F92CDB74A
:101C4000DEB78C01FC018485958597FF0EC0CE011F
:101C500001960E94980D019719F4898190E002C0C5
:101C60008FEF9FEFF80195878487F801848595852C
:101C70000F90DF91CF911F910F9108958F929F92B6
:101C8000AF92BF92CF92DF92EF92FF920F931F938A
:101C9000CF93DF936C017B018A0180910E01882331
:101CA00009F45CC080916D03882309F457C08091CA
:101CB0006B0380FF05C08091E00082608093E000AC
:101CC000E801B12C8AEFA82E93E0892E2AE3922E08
:101CD000209711F4BB20D9F10E94C60D81110AC0D2
:101CE000AA94AA20D9F161E070E080E090E00E941F
:101CF000C708EECF282F30E0C217D3070CF48C2F83
:101D00009FB7F8948092E9002091E80025FF1DC05C
:101D1000282F30E0C21BD30BF701815020F04191F6
:101D20004093F100FACFE20EF31EBB2019F090921F
:101D3000E8000AC08091E80085FD07C09092E800A5
:101D4000BB24B394209709F0B12C9FBFC1CF5D98FD
:101D500084E680936A031016110644F081E090E057
:101D6000F6019383828380E090E001C0C801DF9197
:101D7000CF911F910F91FF90EF90DF90CF90BF9088
:101D8000AF909F908F9008952F923F924F925F92C5
:101D90006F927F928F929F92AF92BF92CF92DF927B
:101DA000EF92FF920F931F93CF93DF93CDB7DEB7E0
:101DB0002A970FB6F894DEBF0FBECDBF5A01822E10
:101DC000912C9401280F391F121613060CF0BCC079
:101DD000803891050CF0B8C09B01200F311D121600
:101DE00013060CF0B1C0603471050CF0ADC0AB014E
:101DF00077FF04C044275527461B570B47705527CC
:101E00009B0177FF02C0295F3F4FE3E0359527959F
:101E1000EA95E1F777FF08C02150310968E070E0EA
:101E2000FB01E41BF50BAF01202E2694269426948B
:101E3000312C077019F0FFEF2F1A3F0A220E331EC4
:101E400039017694762C662477946794680E791E0F
:101E5000E12CF12C00E010E0B30160587F4F7A874D
:101E6000698768E070E0FB01E41BF50BFA83E98306
:101E70002216330609F468C02830310509F464C01D
:101E80002F3FFFEF3F070CF454C0E985FA85E00FC0
:101E9000F11FBF0162597C4F7C836B83D801A60D73
:101EA000B71DA259BC4F6C0160E070E06815790560
:101EB0000CF03FC0E0E8CE16D10409F43AC0D7FCDC
:101EC0002CC02F3FFFEF3F0709F43AC0FB01EE0D96
:101ED000FF1DEA0DFB1DE491042E01C0EE0F0A94D4
:101EE000EAF7FC91EF2BEC9341155105B1F0273047
:101EF000310599F0FB01EE0DFF1DEA0DFB1DE4918C
:101F00004E2E512C098002C0559447940A94E2F752
:101F1000EB81FC815080452840826F5F7F4FEB81D1
:101F2000FC813196FC83EB83FFEFCF1ADF0A119619
:101F3000BDCF2F5F3F4F00581F4FE80CF91C98CFC3
:101F400041155105B9F6E9CF2A960FB6F894DEBFD0
:101F50000FBECDBFDF91CF911F910F91FF90EF90FA
:101F6000DF90CF90BF90AF909F908F907F906F90B9
:101F70005F904F903F902F9008952F923F924F92F5
:101F80005F926F927F928F929F92AF92BF92CF9209
:101F9000DF92EF92FF920F931F93CF93DF9300D0C6
:101FA00000D0CDB7DEB77C018B01242F30E03C831D
:101FB0002B8381E090E05C01A21AB30A19013194ED
:101FC00021943108220C331CB901600F711F41E0CC
:101FD000C7010E949209B8018B819C81681B790B13
:101FE00041E0C7010E94920941E0B8018B819C81C8
:101FF0008E0D9F1D0E94920941E0B801C7012B81FF
:102000003C81821B930B0E949209C12CD12C81E050
:1020100090E09A8389832B813C81C216D3060CF011
:102020005DC0B7FC09C0215031093C832B8332E0ED
:10203000230E311CA20CB31C8FEFC81AD80A2981B9
:102040003A812E5F3F4F3A832983A20EB31E370198
:102050006C0C7D1C41E08B809C80800E911EB40135
:10206000C3010E94920927014C185D0841E0B401A8
:10207000C2010E94920941E048018B819C81881A2B
:10208000990AB401C3010E94920941E0B401C2015E
:102090000E9492094601800E911E41E0B4016B80BE
:1020A0007C806E0C7F1CC3010E94920941E0B40148
:1020B00027012B813C81421A530AC2010E949209D6
:1020C00048018C189D0841E0B401C3010E949209A7
:1020D00041E0B401C2010E9492099DCF0F900F9080
:1020E0000F900F90DF91CF911F910F91FF90EF9084
:1020F000DF90CF90BF90AF909F908F907F906F9028
:102100005F904F903F902F900895009769F0FC01E9
:1021100001900020E9F73197AF01481B590BBC0132
:102120008EE697E00C94720880E090E008950F939B
:102130001F93CF93DF938C01C0E0D0E0F801EC0F48
:10214000FD1F6491662341F08EE697E00E94AD0981
:10215000892B11F02196F2CFCE01DF91CF911F9103
:102160000F9108958F929F92AF92BF920F931F93FA
:10217000CF93DF93CDB7DEB7A1970FB6F894DEBF4C
:102180000FBECDBF19A2423008F44AE08E010F5DA8
:102190001F4F842E912CA12CB12CA50194010E94DB
:1021A0005C1BE62FB901CA0101501109EA3014F491
:1021B000E05D01C0E95CD801EC93232B242B252B97
:1021C00061F7C8010E948510A1960FB6F894DEBF92
:1021D0000FBECDBFDF91CF911F910F91BF90AF90F8
:1021E0009F908F900895EF92FF920F931F93CF933C
:1021F000DF93EC018B01E42EF22E6034710510F4B4
:102200000E94630DB8016F0D711D6150710960343A
:10221000710520F44E2DCE010E94630D21E04F2D5B
:10222000B801CE010E940E0ACE018E0D911D21E053
:102230004F2DB8010197DF91CF911F910F91FF9022
:10224000EF900C940E0ACF93DF930E948510EC015F
:102250008FEA91E00E9485108C0F9D1FDF91CF9136
:102260000895CF93DF93682F70E080E090E04AE01C
:102270000E94B210EC018FEA91E00E9485108C0F51
:102280009D1FDF91CF9108958091760781110DC038
:1022900082E08093720784E0809373071092750741
:1022A0001092740781E08093760782E797E00895A3
:1022B000FC018485958597FD0BC09FB7F89482E05B
:1022C0008093E9008091F2009FBF90E0019608950D
:1022D0009FB7F89482E08093E9008091F2009FBF5D
:1022E00090E008954091D1075091D2072091CF07F7
:1022F0003091D00742175307B4F49091E8009570DD
:10230000E1F39091E80092FD19C08093F100809173
:10231000D1079091D20701968F739927892B19F4D1
:102320008EEF8093E8008091D1079091D2070196BB
:102330009093D2078093D10781E0089580E00895BB
:10234000DF92EF92FF920F931F93CF93DF93D82EDC
:10235000F92EE42E062F10E0C8010196880F0E9486
:10236000721183E00E947211CD2DDF2D0C0F1D1F05
:10237000C017D10789F0E7FE03C0FE01849101C0B8
:1023800088810E947211F82E80E00E9472118F21C4
:1023900021968111EDCF01C081E0DF91CF911F9196
:1023A0000F91FF90EF90DF900895DF92EF92FF92F0
:1023B0000F931F93CF93DF93D82E8A017B01E40EF6
:1023C000F51EEB01CE15DF0571F0D7FE03C0FE014F
:1023D000849101C088810E94721121968111F2CFEF
:1023E0008FEF9FEF01C0C801DF91CF911F910F9137
:1023F000FF90EF90DF900895615030F02091F10050
:10240000FC0120830196F8CF289884E680936C0322
:1024100008950F931F93CF93DF931F92CDB7DEB72D
:1024200082E0898342E450E069E170E180E80E9443
:10243000D5110E944411DC0112960D911C91139745
:102440000115110589F0D801ED91FC910280F3810D
:10245000E02DBE016F5F7F4FC801099597FD04C055
:10246000F80100851185ECCF89810F90DF91CF9124
:102470001F910F9108951F920F920FB60F92112482
:102480008F939F938091E1009091E100937F9093CF
:10249000E10083FF0FC01092E90091E09093EB0000
:1024A0001092EC0092E39093ED0010926D0398E08F
:1024B0009093F00082FF20C093E09093E900909108
:1024C000F200992319F09AE39093E80090916A033F
:1024D000992339F090916A03915090936A0399235C
:1024E00089F190916C03992339F090916C0391508C
:1024F00090936C03992341F184FF10C08091E20016
:102500008E7E81608093E2008091E1008F7E8093D7
:10251000E10080916B038E7E806111C080FF16C048
:102520008091E2008E7E80618093E2008091E100E4
:102530008E7E8093E10080916B038E7E816080931C
:102540006B0304C05D9ACDCF289AD6CF9F918F910F
:102550000F900FBE0F901F9018951F920F920FB6FD
:102560000F921124CF92DF92EF92FF920F931F935D
:102570002F933F934F935F936F937F938F939F938B
:10258000AF93BF93EF93FF93CF93DF93CDB7DEB7B6
:102590006C97DEBFCDBF1092E9008091E80083FF09
:1025A000FBC168E0CE0145960E94FC1182EF80934A
:1025B000E8008D8987FF05C09091E80090FFFCCF6F
:1025C00003C09EEF9093E800982F907609F0C6C064
:1025D0009E894F89588D2F89F88C91110CC08038B5
:1025E00029F48091CE078093F10002C01092F1008F
:1025F0001092F10045C1913051F4811141C1413037
:10260000510509F03DC18091CE078D7F0BC09330FD
:1026100061F4811135C14130510509F031C180911A
:10262000CE0782608093CE072BC1953049F480910C
:10263000E80080FFFCCF822F80688093E30020C1F8
:10264000963009F05EC00B8D1C8D22E01092E900DF
:102650001092D2071092D107F21232C01092D00716
:102660001092CF070E94091299E0BE016F5F7F4F61
:10267000DB01E92F1D92EA95E9F79983FA8291E04F
:102680009E8390EA98879AEF99872091D10730919D
:10269000D207275F3F4F3C832B838D831092E90045
:1026A0001092D2071092D1071093D0070093CF0752
:1026B00049E050E080E00E94D5110E940912E0C07C
:1026C0001093D0070093CF070E944411DC011296AB
:1026D0000D911C9113970115110509F4BBC0D80188
:1026E000ED91FC910480F581E02DBE016B5E7F4F82
:1026F000C8010995009709F0C7C0F8010085118548
:10270000EACF973009F445C1983021F481E08093F5
:10271000F100B6C0993009F0B3C0837009F039C137
:10272000E8E6F1E081E031E096E32081211109C083
:102730008EE78093EA001092EA008F8980936D0300
:102740009FC08093E9003093EB0021912093EC002F
:102750009093ED008F5F873041F7EACF8B8D9C8D92
:102760001092E9001092D2071092D1079093D007EF
:102770008093CF07898D811153C08E899D89913AAD
:1027800049F4813209F005C147E050E067E071E0AB
:1027900080E0BBC0913209F0FCC0833269F48F89BC
:1027A000988DA0E0B0E08093170190931801A0935A
:1027B0001901B0931A0164C0803269F48091E80075
:1027C00082FFFCCF67E087E091E00E94FC118BEF75
:1027D0008093E80055C0823209F052C08F898093FF
:1027E0000E01EEEFFFE7859194918B3F9C4D19F020
:1027F000E0E0F8E002C0EEEFFAE08091070190918E
:102800000801A0910901B0910A01803B9440A10503
:10281000B10509F09EC080910E0180FF79C099C07A
:102820000E944411FC01028113810115110509F474
:10283000B0C0D801ED91FC910190F081E02DBE0176
:102840006B5E7F4FC801099581111AC0F8010085A0
:102850001185EBCFF1E0FF1609F44EC0F3E0FF1253
:1028600098C08F89882309F44AC0823089F440E8EF
:1028700060E18DE790E10E94A011882309F489C0EE
:102880008EEF8093E80088C018161906CCF381C03B
:10289000813029F440E86BE081E790E1ECCF8330B0
:1028A00009F077C00E944411DC011296ED90FC9073
:1028B00013978E010F5F1F4F6801E114F10479F047
:1028C000D701ED91FC910680F781E02DB801C70199
:1028D0000995080F111DF701E084F184EECFD801AE
:1028E0001C92F60101900020E9F73197BF016C19A5
:1028F0007D0940E0C601BFCF6FE570E102C06BE526
:1029000070E1FB01449150E080E80E94D511B8CFFE
:10291000EE3F2AE0F20751F0808191818737A7E7E7
:102920009A0721F09093FF0A8093FE0A87E797E7C2
:1029300091838083809160008093D3079BE088E13E
:102940000FB6F894A895809360000FBE9093600036
:1029500097CF808191818737974709F091CFA895CC
:10296000809160008861809360008091D30780939C
:102970006000EE3FBAE0FB0739F08091FE0A9091CB
:10298000FF0A918380837CCF1092FF0A1092FE0A87
:1029900077CF81E28093EB006C960FB6F894DEBFA0
:1029A0000FBECDBFDF91CF91FF91EF91BF91AF915E
:1029B0009F918F917F916F915F914F913F912F9157
:1029C0001F910F91FF90EF90DF90CF900F900FBE6F
:1029D0000F901F901895789484B5826084BD84B55B
:1029E000816084BD85B5826085BD85B5816085BD0A
:1029F00080916E00816080936E00109281008091C2
:102A00008100826080938100809181008160809349
:102A1000810080918000816080938000809191008E
:102A200082608093910080919100816080939100F9
:102A3000809190008160809390008091C1008460BB
:102A40008093C1008091C10082608093C100809119
:102A5000C10081608093C1008091C3008160809338
:102A6000C3008091C00082608093C0008091C2004A
:102A700081608093C20080917A00846080937A00A4
:102A800080917A00826080937A0080917A008160E0
:102A900080937A0080917A00806880937A00109207
:102AA0006D031092CE0710926B038091D700816066
:102AB0008093D70080EA8093D80089B5806189BD72
:102AC00089B5826089BD09B400FEFDCF61E070E088
:102AD00080E090E00E94C7088091D8008F7C8061E0
:102AE0008093D8008091E000807F8093E000809107
:102AF000E1008E7E8093E1008DE08093E200559AA4
:102B0000209A81EC80937C0085B1806F85B984B177
:102B1000877E84B984B1876E84B95E9A5F988AB1E2
:102B2000806D8AB9769A6E9881B3806F81BB8998DF
:102B300080B38D7080BB80E58CBD81E08DBD85E06C
:102B400090E00E944B095F9A85E090E00E944B095B
:102B50005E985C98E4EFF0E081E091E024912EBD76
:102B600000000DB407FEFDCF31968E179F07B1F719
:102B70005C9A81E880936400809165008160809315
:102B8000650081E2809300010E94590A93E1492E79
:102B9000512C612C712C2AE0C22ED12C30E2232E34
:102BA000312CC1E02FB7F8948091B2019091B3011C
:102BB000A091B401B091B5012FBF20915103222300
:102BC00019F01092510359C420915203382F321B2F
:102BD000232F30910001231740F42F5F231708F0B3
:102BE0004CC4C3BF889513BE48C4C093510380939F
:102BF0005203E0904803F09049038FEFE81AF80A77
:102C0000F0924903E092480300915C0300935D0356
:102C10000E945009182F80935C03E09150038E2F7F
:102C200090E08730910508F028C4FC01EA5AFF4F74
:102C30000C94A11B0E94580910925E0382E38093BA
:102C40000F018CE3809310011092140127EB31E007
:102C500044E180E090E0F901E80FF91F108201964D
:102C600084319105C1F741502C5E3F4F4111F1CFA6
:102C700010E004E10E94D31AA30192010E942A1BD2
:102C8000F62ED62F0E94D31AA30192010E942A1B6E
:102C90000F9DF0011124E954FE4FE60FF11D9081C4
:102CA000992319F0183030F307C0DA30D9F36A30BD
:102CB000C9F3C0831F5FF6CF00E420E849E051E08C
:102CC00060E070E080E090E00E94C40E21E130E01E
:102CD00030934F0320934E0380E390E090934D0395
:102CE00080934C0381E091E00E94971046E064E3FA
:102CF00070E087E390E00E94BD0F0E94820988E0A7
:102D00000E947709882309F4B8C3C093500392C383
:102D1000109258031092590310925A0310925B03B9
:102D20008FB7F8948090B2019090B301A090B40155
:102D3000B090B5018FBF8092580390925903A09232
:102D40005A03B0925B030E94580908E028E049E06A
:102D500055E060E070E089E790E00E94C40E809149
:102D6000B601882331F080EF90E00E944B09109269
:102D7000B60180E80E946D098823F9F080E80E947E
:102D80006D098823D1F080E40E946D098823A9F0A1
:102D900080E20E946D09882381F088E00E946D091D
:102DA000882359F084E00E946D09882331F08091D6
:102DB00014018650823008F468C380E80E946D09CF
:102DC0008823F9F080E80E946D098823D1F080E41F
:102DD0000E946D098823A9F080E20E946D09882372
:102DE00081F088E00E946D09882359F084E00E94F8
:102DF0006D09882331F0809114018450823008F4E9
:102E000049C380E80E946D098823F9F080E80E9498
:102E10006D098823D1F080E40E946D098823A9F010
:102E200080E20E946D09882381F088E00E946D098C
:102E3000882359F084E00E946D09882331F0809145
:102E400014018850823008F42AC380E80E946D097A
:102E50008823F9F080E80E946D098823D1F080E48E
:102E60000E946D098823A9F080E20E946D098823E1
:102E700081F088E00E946D09882359F084E00E9467
:102E80006D09882331F0809114018A50823008F452
:102E90000CC395EF891691E09906A104B1040CF4D6
:102EA0008AC080E40E9477098823E9F084E0809357
:102EB0001401909154039F5F9093540380911101EA
:102EC000833168F4943658F08F5F8093110110922B
:102ED00054030E94540B80EF90E00E944B09C09372
:102EE0005E031092570380E20E9477098823E9F07D
:102EF00086E080931401909153039F5F9093530356
:102F000080911101882369F0943658F081508093A4
:102F10001101109253030E94540B80EF90E00E9425
:102F20004B09C0935E03C093570380E80E94770962
:102F30008823F1F088E080931401909155039F5FFE
:102F40009093550380911201882369F0943658F0CC
:102F5000815080931201109255030E94540B80EF10
:102F600090E00E944B09C0935E0382E08093570378
:102F700080E10E9477098823F1F08AE080931401B0
:102F8000909156039F5F9093560380911201833175
:102F900068F4943658F08F5F8093120110925603B4
:102FA0000E94540B80EF90E00E944B09C0935E0397
:102FB00083E08093570384E00E947709882351F0CF
:102FC0001092140110925E0383E08093570382E015
:102FD000809350036091570380915E030E94B90A69
:102FE0000E94900A0E94350B0E94820946C21092EC
:102FF0005F031092600310926103109262032FB777
:10300000F8948091B2019091B301A091B401B09174
:10301000B5012FBF80935F0390936003A09361037A
:10302000B09362030E94580924E144E160E070E03B
:1030300080E090E00E94F31025E030E030934F03F1
:1030400020934E0382E390E090934D0380934C03D2
:103050008FE195E00E94971089E190E090934F03F3
:1030600080934E0310924D0310924C0388E195E03B
:103070000E9497106091470370E080E090E04AE082
:103080000E94B21029E130E030934F0320934E03A9
:10309000D0924D03C0924C0381E195E00E949710BD
:1030A0008EE691E00E94851087EBA82E81E0B82E75
:1030B00000E010E0E12CF12CF501EE0DFF1D808108
:1030C000813029F441E0B701C8010E9492093FEF25
:1030D000E31AF30A84E1E816F10471F70F5F1F4F5A
:1030E00094E1A90EB11C0431110521F76091120180
:1030F00070E08091110141E090E00E94BD0F0E94BC
:10310000820980EF90E00E944B0980915F039091CB
:103110006003A0916103B0916203853F9140A105D6
:10312000B1050CF4AAC184E00E947709882309F450
:10313000A4C1C093B601C9C10E94580908E128E1A1
:1031400049E756E066E170E086E490E00E94C40E34
:1031500080914B03813039F406E126E147E356E0E4
:1031600064E170E01DC0823029F404E124E14BEFFA
:1031700055E014C0833029F408E128E143EB55E021
:103180000DC0843029F408E12AE145E655E006C087
:10319000853051F406E126E143E255E066E170E056
:1031A0008EE190E00E94C40E3FE0E322FF24EF286E
:1031B00009F063C180914A0381115FC1D09106017A
:1031C000DA3508F08EC0E0914B03F0E0E050FF4F9D
:1031D0008081882309F485C080911301882309F434
:1031E00080C084E690E00E944B09ED2EF12C01E0B6
:1031F00025E045E06DE270E0C7010E94370A00E07B
:1032000025E045E06DE270E0C70102970E94370AB1
:1032100025E040E46DE270E08EE190E00E94F31062
:103220000E94CB0B0E948209809106018E5F8093E1
:10323000060184E00E947709882309F4BFCFE0915A
:103240004B03F0E0E050FF4F8081882309F4B6CFB4
:1032500080911301882309F4B1CFC0934A030E94DF
:103260001E0C84E690E00E944B09A8CFE0914B032E
:10327000F0E0E050FF4F8081882309F49BCF8091DC
:103280001301882309F496CF84E690E00E944B094D
:10329000ED2EF12C01E025E045E06DE270E0C70184
:1032A0000E94370A00E025E045E06DE270E0C701CA
:1032B00002960E94370A25E040E46DE270E08EE15C
:1032C00090E00E94F3100E94CB0B0E948209809133
:1032D000060182508093060184E00E9477098111E3
:1032E00005C0D0910601DF3108F664CFE0914B03B1
:1032F000F0E0E050FF4F8081882399F38091130123
:10330000882379F3C0934A030E941E0C84E690E060
:103310000E944B09E6CF80E490E090934F038093A6
:103320004E0330924D0320924C03D4E60E9458097C
:1033300060E080E00E94B90A6091100170E068517D
:10334000710980910F0108E128E141EC56E090E01D
:103350000E94C40E83E791E00E9485100E948209BA
:103360008AEF90E00E944B090E94580960E080E0DB
:103370000E94B90A6091100170E068517109809152
:103380000F0128E141EC56E090E00E94C40E87E76F
:1033900091E00E9485100E9482098AEF90E00E94CD
:1033A0004B090E94580960E080E00E94B90A6091D0
:1033B000100170E06851710980910F0128E141EC22
:1033C00056E090E00E94C40E8BE791E00E948510C9
:1033D0000E9482098AEF90E00E944B09D15009F0C7
:1033E000A5CF87E08093130170C00E94580902E1C5
:1033F0002FE049E057E063E270E082E390E00E9452
:10340000C40ED0924F03C0924E03D0924D03C0928F
:103410004C038FE791E00E9485108EE691E00E94B8
:1034200085100E94820988E00E947709882329F18B
:10343000109250031092140120C00E94580960E0BD
:1034400080E00E94B90A0E94350B28E230E03093F8
:103450004F0320934E038CE090E090934D038093B4
:103460004C0386E397E00E9497100E94900A0E9406
:10347000820903FD02C013FD1EC020E030E0232BB3
:1034800009F490CB0E9400008CCBC09314011092E1
:103490005E0393CC1092140110925E03B2CC82E0D2
:1034A0008093140110925E03D0CC83E080931401CA
:1034B00010925E03EECC10925E0382E380930F01C4
:1034C0008CE38093100110921401C0935003D5CF68
:1034D000EEE7F7E01382128288EE93E0A0E0B0E01E
:1034E00084839583A683B7838CE491E09183808362
:1034F0008FEF9FEF95878487EEE6F7E013821282C5
:103500008FE591E09183808387E080931301089594
:103510008F929F92AF92BF92CF92DF92EF92FF92E3
:10352000CF93DF93EC01688179818A819B8161155A
:1035300071058105910521F464E279ED8BE597E051
:103540002DE133EF41E050E00E942A1B49015A016E
:103550009B01AC01A7EAB1E40E94491B6B017C010D
:10356000ACEEB4EFA50194010E94571BDC01CB0126
:103570008C0D9D1DAE1DBF1DB7FF03C00197A10996
:10358000B04888839983AA83BB83BC01CD019F7710
:10359000DF91CF91FF90EF90DF90CF90BF90AF90F1
:1035A0009F908F9008958F929F92AF92BF92CF92EB
:1035B000DF92EF92FF9260911B0170911C0180914C
:1035C0001D0190911E01611571058105910521F480
:1035D00064E279ED8BE597E02DE133EF41E050E0D7
:1035E0000E942A1B49015A019B01AC01A7EAB1E4E0
:1035F0000E94491B6B017C01ACEEB4EFA501940164
:103600000E94571BDC01CB018C0D9D1DAE1DBF1D03
:10361000B7FF03C00197A109B04880931B019093A5
:103620001C01A0931D01B0931E01BC01CD019F7729
:10363000FF90EF90DF90CF90BF90AF909F908F90D2
:10364000089560931B0170931C0180931D0190935A
:103650001E010895052E97FB1EF400940E94411B45
:1036600057FD07D00E945C1B07FC03D04EF40C945E
:10367000411B50954095309521953F4F4F4F5F4FDF
:10368000089590958095709561957F4F8F4F9F4FCE
:1036900008950E947E1BA59F900DB49F900DA49F3E
:1036A000800D911D11240895B7FF0C94491B0E94B1
:1036B000491B821B930B0895A1E21A2EAA1BBB1B68
:1036C000FD010DC0AA1FBB1FEE1FFF1FA217B307EE
:1036D000E407F50720F0A21BB30BE40BF50B661F04
:1036E000771F881F991F1A9469F7609570958095C8
:1036F00090959B01AC01BD01CF010895A29FB0013F
:10370000B39FC001A39F700D811D1124911DB29F15
:10371000700D811D1124911D0895AA1BBB1B51E141
:1037200007C0AA1FBB1FA617B70710F0A61BB70B31
:10373000881F991F5A95A9F780959095BC01CD01D6
:103740000895EE0FFF1F0590F491E02D099481E09C
:0C37500090E0F8940C94AC1BF894FFCFB0
:10375C0010040407080C1E00E1000000000000002B
:10376C003E0A0A0000D10FFFFFFFFF01000000D14D
:10377C000F7906C80980093809F008A808600818EC
:10378C0008D00788074007C106B10A910A710A518F
:10379C000A310A000102030400000000D70D3E0E9E
:1037AC00F80DED0D5811FC0D1A0E0700000000ADC0
:1037BC00097208C208C10800C18081000000426F74
:1037CC006B6F005A7A7A007A5A7A007A7A5A0054D5
:1037DC0068616E6B20596F7520004556454E54211B
:1037EC0000484954210057494E21004D495353215B
:1037FC00004C4F5354212121004C4F535421000DA8
:02380C000A00B0
:00000001FF
